:100000000C942A000C9447000C9447000C94470071
:100010000C9447000C9447000C9447000C94470044
:100020000C9447000C9447000C94A8070C944700CC
:100030000C9447000C9447000C9447000C94470024
:100040000C9447000C9447000C9447000C94470014
:100050000C94470011241FBECFE5D8E0DEBFCDBF12
:1000600010E0A0E6B0E0E0EEFAE102C005900D92EB
:10007000AC3BB107D9F720E0ACEBB0E001C01D927A
:10008000AD3DB207E1F70E943E050C946E0D0C9455
:10009000000087B1806487B987B1816087B987B173
:1000A000826087B987B1846087B986B1806886B974
:1000B00086B1846086B986B1826086B986B1816076
:1000C00086B9089586B18F7786B9089586B1806420
:1000D00086B9349BFECF86B1806186B924B185B1E3
:1000E00090E0982F8827822B0895823429F118F404
:1000F000813439F008958334D1F1843409F452C045
:100100000895413059F42AB381E090E002C0880F8D
:10011000991F6A95E2F7822B8ABB089541115CC052
:100120002AB381E090E002C0880F991F6A95E2F738
:10013000809582238ABB0895413059F427B381E02A
:1001400090E002C0880F991F6A95E2F7822B87BB67
:100150000895411141C027B381E090E002C0880FAB
:10016000991F6A95E2F78095822387BB08954130F5
:1001700059F424B381E090E002C0880F991F6A957A
:10018000E2F7822B84BB0895411126C024B381E09D
:1001900090E002C0880F991F6A95E2F7809582234C
:1001A00084BB0895413059F421B381E090E002C04E
:1001B000880F991F6A95E2F7822B81BB0895411140
:1001C0000BC021B381E090E002C0880F991F6A95AF
:1001D000E2F78095822381BB0895823429F118F4D7
:1001E000813439F008958334D1F1843409F452C054
:1001F0000895413059F42BB381E090E002C0880F9C
:10020000991F6A95E2F7822B8BBB089541115CC060
:100210002BB381E090E002C0880F991F6A95E2F746
:10022000809582238BBB0895413059F428B381E037
:1002300090E002C0880F991F6A95E2F7822B88BB75
:100240000895411141C028B381E090E002C0880FB9
:10025000991F6A95E2F78095822388BB0895413003
:1002600059F425B381E090E002C0880F991F6A9588
:10027000E2F7822B85BB0895411126C025B381E0AA
:1002800090E002C0880F991F6A95E2F7809582235B
:1002900085BB0895413059F422B381E090E002C05B
:1002A000880F991F6A95E2F7822B82BB089541114E
:1002B0000BC022B381E090E002C0880F991F6A95BD
:1002C000E2F78095822382BB08958234E9F018F426
:1002D000813431F055C0833459F18434E9F150C090
:1002E00049B381E090E09C01062E02C0220F331F2B
:1002F0000A94E2F7842F90E08223932302C096951C
:1003000087956A95E2F7089546B381E090E09C01F5
:10031000062E02C0220F331F0A94E2F7842F90E0CA
:100320008223932302C0969587956A95E2F70895F4
:1003300043B381E090E09C01062E02C0220F331FE0
:100340000A94E2F7842F90E08223932302C09695CB
:1003500087956A95E2F7089540B381E090E09C01AB
:10036000062E02C0220F331F0A94E2F7842F90E07A
:100370008223932302C0969587956A95E2F70895A4
:1003800080E00895823419F118F4813439F0089529
:100390008334B1F1843409F44CC00895413059F4E8
:1003A0002BB381E090E002C0880F991F6A95E2F7B5
:1003B000822B8BBB08952BB381E090E002C0880FA5
:1003C000991F6A95E2F7809582238BBB089541308F
:1003D00059F428B381E090E002C0880F991F6A9514
:1003E000E2F7822B88BB089528B381E090E002C039
:1003F000880F991F6A95E2F78095822388BB08953C
:10040000413059F425B381E090E002C0880F991F74
:100410006A95E2F7822B85BB089525B381E090E0D1
:1004200002C0880F991F6A95E2F78095822385BBE9
:100430000895413059F422B381E090E002C0880F62
:10044000991F6A95E2F7822B82BB089522B381E05F
:1004500090E002C0880F991F6A95E2F78095822389
:1004600082BB08956295607F823481F018F48134F4
:1004700031F00895833489F08434B1F008958BB35A
:100480008F708BBB8BB3682B6BBB089588B38F7059
:1004900088BB88B3682B68BB089585B38F7085BB14
:1004A00085B3682B65BB089582B38F7082BB82B31E
:1004B000682B62BB0895CF93DF93C0E6D0E041E0A4
:1004C00060E088810E94750041E061E088810E94BF
:1004D000750041E062E088810E94750041E063E0C0
:1004E00088810E94750040E064E088810E94750068
:1004F00040E065E088810E94750040E066E0888108
:100500000E94750041E064E088810E94C20141E0E0
:1005100065E088810E94C20141E066E088810E9416
:10052000C201DF91CF910895CF92DF92EF92FF92B7
:100530000F931F93CF93DF93CDB7DEB72C970FB6F2
:10054000F894DEBF0FBECDBF8CE0EFE6F0E0DE0139
:10055000119601900D928A95E1F7EE24EA94F12C20
:1005600079C00F2EF0E6CF2EF0E0DF2EF02D41E027
:1005700060E0F60180810E94ED0041E061E0F6015B
:1005800080810E94ED0041E062E0F60180810E94DE
:10059000ED0041E063E0F60180810E94ED0040E063
:1005A0006F2DF60180810E94ED0010E049C064E0EB
:1005B000610F809160000E946501082F811113C0B6
:1005C0008F2D90E0FC01EE0FFF1FE80FF91FE454A0
:1005D000FF4FE10FF11D81E0808380916500815024
:1005E000809365002CC080916500811128C08F2DFB
:1005F00090E0212F30E0FC01EE0FFF1FE80FF91F04
:10060000E454FF4FE20FF31F40814130C1F4AC01CD
:10061000440F551F840F951FE1E0F0E0EC0FFD1F24
:10062000E80FF91FE20FF31FE08084549F4FFC0195
:10063000E20FF31F108281E08093650004C01F5F0A
:10064000133008F4B4CF011104C0809165008823F1
:1006500029F0F394F3E0FF1508F083CF8E2D2C964C
:100660000FB6F894DEBF0FBECDBFDF91CF911F91C3
:100670000F91FF90EF90DF90CF900895CF93DF938D
:10068000C0E6D0E041E060E088810E94ED0041E0FA
:1006900061E088810E94ED0041E062E088810E9473
:1006A000ED0040E063E088810E94ED0066E0888113
:1006B0000E946501811107C0809164008150809380
:1006C000640080E009C080916400811104C081E071
:1006D0008093640001C080E0DF91CF910895CF93B3
:1006E000DF93C0E6D0E041E063E08A810E94ED0044
:1006F0008FE39FE10197F1F700C0000040E063E065
:100700008A810E94ED008FE39FE10197F1F700C01D
:100710000000DF91CF9108951F93CF93DF93182F9F
:10072000682F62956F70C0E6D0E08A810E94320225
:1007300040E061E08A810E94ED000E946F03612F1A
:100740008A810E94320240E061E08A810E94ED00CD
:100750000E946F038FE99FE00197F1F700C000004E
:10076000DF91CF911F910895CF93DF93C0E6D0E042
:1007700041E064E08A810E94750041E065E08A8181
:100780000E94750041E066E08A810E94750041E0A8
:1007900067E08A810E94750041E063E08A810E94DF
:1007A000750041E062E08A810E94750041E061E0ED
:1007B0008A810E94750040E062E08A810E94ED001B
:1007C00082E00E948C0388E20E948C038CE00E94ED
:1007D0008C0381E00E948C0386E00E948C03DF91F1
:1007E000CF9108951F93CF93DF93182F682F6295B1
:1007F0006F70C0E6D0E08A810E94320241E061E081
:100800008A810E94ED000E946F03612F8A810E94FD
:10081000320241E061E08A810E94ED000E946F0394
:100820008FE99FE00197F1F700C00000DF91CF91C1
:100830001F9108950F931F93CF938C01C0E003C0C5
:100840000E94F203CF5FF801EC0FF11D808181114E
:10085000F7CFCF911F910F91089581E00E948C03F3
:100860008FE99FE00197F1F700C0000008959FEF26
:10087000980F923070F4613170F4662371F081301A
:1008800019F48FE7860F0CC0823049F48FEB860F86
:1008900007C080E805C080E803C080E801C080E0B0
:1008A0000E948C038FE99FE00197F1F700C00000E0
:1008B0000895813021F488E10E948C03089581110C
:1008C00003C08CE10E948C03089541E00E947500F2
:1008D000089541E00E94ED00089540E00E94ED007F
:1008E00008950E94490008950E94620008950E94A0
:1008F0006600BC0180E090E00E9431092AE038E205
:1009000040EA5BE30E94170A089581111CC0660F3C
:10091000660F660F606663BF411104C083B78160D4
:1009200083BF0BC0413021F483B7826083BF05C011
:10093000423019F483B7846083BF41E063E082E40E
:100940000E94750008958230D9F4660F660F660F15
:10095000606665BD411104C085B5816085BD0BC071
:10096000413021F485B5826085BD05C0423019F45F
:1009700085B5846085BD41E067E084E40E94750030
:100980000895811102C013BE0895823009F415BC88
:100990000895811102C06CBF0895823009F463BDCF
:1009A0000895CF93DF93C0E6D0E041E064E0898111
:1009B0000E94750041E065E089810E94750041E078
:1009C00067E089810E94750040E066E089810E94AD
:1009D00075008DB180618DB98DB1877F8DB98DB175
:1009E00084608DB98DB181608DB98DB182608DB912
:1009F0008DB180648DB9DF91CF9108958FB9779BC8
:100A0000FECF8FB10895CF93C82F0E94D10441E04B
:100A100064E082E40E94ED0080E80E94FE048C2FD6
:100A20000E94FE0440E064E082E40E94ED00CF9169
:100A30000895CF9341E064E082E40E94ED0082E0FB
:100A40000E94FE0480E00E94FE04C82F40E064E0A3
:100A500082E40E94ED008C2FCF91089583B78860C7
:100A600083BF8DE98CBF83B7816083BF83B7846008
:100A700083BF789489B7826089BF08950E94A507D3
:100A800002C00E94AA058091C8008823D1F30E9469
:100A900064060E94E9070E94870680916E000E940A
:100AA000E9058091DC000E941F06E091D100F0E092
:100AB000EE0FFF1FEA59FF4F808191810E9453067C
:100AC0008091D10081110AC00E94A4060E94FA07F9
:100AD00080916E000E94E9050E9475078091D10007
:100AE000813011F50E949C060E94EF070E94AA0621
:100AF0000E94D9062091C9003091CA004091CB00D4
:100B00005091CC006091CD007091CE008091CF00CB
:100B10009091D0000E94EA060E9475070E942B0760
:100B20000E9445070E945E078091D100823051F4F7
:100B30000E94A4060E94EF070E9475070E941607F4
:100B40000E9445078091D100833009F0A6CF0E9412
:100B5000A406A3CFCF93DF938091D8008530B0F166
:100B60000E94B40360E181E00E9437048BE790E0CB
:100B70000E941A04D3E023C081E00E9459042FEFA1
:100B800081EE94E0215080409040E1F700C00000E9
:100B9000C15001C0C0E1C23078F7C1E00DC080E0B3
:100BA0000E9459042FEF81EE94E021508040904044
:100BB000E1F700C00000CF5FC03188F3D150D11100
:100BC000E9CF1092D80081E08093C800DF91CF91E7
:100BD0000895CF93DF9300D0CDB7DEB78A3028F4E5
:100BE00090E39983805D8A8312C01F928F9383E87C
:100BF00090E09F938F93CE0101969F938F930E94D5
:100C0000840A0F900F900F900F900F900F9065E057
:100C100081E00E943704CE0101960E941A040F90D1
:100C20000F90DF91CF9108956FE081E00E9437042B
:100C30008FEF0E94F2038FEF0E94F2030895CF938B
:100C4000DF9300D0CDB7DEB79091D100933011F093
:100C5000911103C00E94140621C08A3028F490E349
:100C60009983805D8A8312C01F928F9383E890E0FE
:100C70009F938F93CE0101969F938F930E94840A36
:100C80000F900F900F900F900F900F906FE081E0FA
:100C90000E943704CE0101960E941A040F900F9013
:100CA000DF91CF910895CF93DF93EC0167E082E06D
:100CB0000E943704CE010E941A0486E890E00E9448
:100CC0001A04DF91CF9108950E942D048CE890E0E2
:100CD0000E941A046BE081E00E94370481E990E0F1
:100CE0000E941A0480916E000E94E9058091DC0048
:100CF0000E941F0661E082E00E94370486E990E0CE
:100D00000E941A048DE990E00E945306089560E065
:100D100082E40E94650461E082E40E94650462E06E
:100D200082E40E94650463E082E40E94650460E05E
:100D300082E40E94690408950E94710442E061E027
:100D400082E00E94850408950E94740482E00E945B
:100D5000C104089560916E008091DC00861748F010
:100D60001092CD001092CE001092CF001092D000C1
:100D700008958617E8F470E0681B7109072E000CCF
:100D8000880B990B0E94330920E030E048EC52E4D4
:100D90000E94900820E030E040E251E40E94170AEF
:100DA0006093CD007093CE008093CF009093D000DD
:100DB00008958091D400823360F00E94770460939C
:100DC000C9007093CA008093CB009093CC0010921E
:100DD000D4000895CF92DF92EF92FF926B017C01D5
:100DE000CA01B9010E94240820E030E040E251E449
:100DF0000E949008A70196010E94170A20E030E0A7
:100E000040E251E40E94900820E030E04FE753E4D4
:100E10000E94170A0E946E090E94020982E00E9445
:100E2000C904FF90EF90DF90CF90089580916E00FD
:100E300090E02091DC00821B910906975CF081E034
:100E40008093D10062E082E40E946D0461E082E45C
:100E50000E946904089580916E0090E02091DC006A
:100E6000821B910905960B9778F482E08093D1005C
:100E70001092D3001092D20061E082E40E946D04CF
:100E800062E082E40E94690408958091DC0090E0B1
:100E900020916E00821B91090B977CF083E0809378
:100EA000D10062E082E40E946D0461E082E40E946D
:100EB0006D0463E082E40E94690408958091D20089
:100EC0009091D300853A984378F083E08093D100E5
:100ED0001092D3001092D20061E082E40E946D046F
:100EE00063E082E40E94690408958091D500843112
:100EF00058F10E943E03813029F58091D100811183
:100F00000CC081E08093D10060E082E40E946D0417
:100F100061E082E40E94690411C08150823070F463
:100F20001092D10062E082E40E946D0461E082E4EC
:100F30000E946D0460E082E40E9469041092D30074
:100F40001092D2001092D50008950E942E050895A7
:100F50001F920F920FB60F9211242F938F939F938E
:100F60009091D100911105C08091D8008F5F80933E
:100F7000D8008091D7008F5F8093D7008091D600F2
:100F80008F5F8093D6008091D5008F5F8093D500CE
:100F90008091D4008F5F8093D400913091F4809140
:100FA0006E0090E02091DC00821B910906974CF0C6
:100FB0008091D2009091D30001969093D3008093BA
:100FC000D2009F918F912F910F900FBE0F901F9085
:100FD00018950E945B0284E10E94030508958091A8
:100FE000D700843130F00E9419058093DC00109204
:100FF000D70008958091D600843120F10E94940298
:101000008093DB008F3FE1F08C30D1F080936E0055
:101010009091D90091110BC0880F282F220F220F19
:10102000820F8093DA009F5F9093D90009C090915E
:10103000DA00890F8093DA0080936E001092D90055
:101040001092D60008955058BB27AA270E943B084B
:101050000C94C5090E94B70938F00E94BE0920F01F
:1010600039F49F3F19F426F40C94B4090EF4E0957A
:10107000E7FB0C948509E92F0E94D60958F3BA17AB
:10108000620773078407950720F079F4A6F50C949E
:10109000100A0EF4E0950B2EBA2FA02D0B01B9010A
:1010A00090010C01CA01A0011124FF27591B99F0DE
:1010B000593F50F4503E68F11A16F040A22F232FEA
:1010C000342F4427585FF3CF469537952795A7953A
:1010D000F0405395C9F77EF41F16BA0B620B730BE1
:1010E000840BBAF09150A1F0FF0FBB1F661F771F52
:1010F000881FC2F70EC0BA0F621F731F841F48F407
:10110000879577956795B795F7959E3F08F0B0CF8F
:101110009395880F08F09927EE0F97958795089576
:101120000E94A4080C94C5090E94BE0958F00E94B0
:10113000B70940F029F45F3F29F00C94850951115B
:101140000C94110A0C94B4090E94D60968F39923EF
:10115000B1F3552391F3951B550BBB27AA276217B3
:101160007307840738F09F5F5F4F220F331F441FC0
:10117000AA1FA9F335D00E2E3AF0E0E832D09150F4
:101180005040E695001CCAF72BD0FE2F29D0660FE1
:10119000771F881FBB1F261737074807AB07B0E824
:1011A00009F0BB0B802DBF01FF2793585F4F3AF02A
:1011B0009E3F510578F00C9485090C94110A5F3F0D
:1011C000E4F3983ED4F3869577956795B795F795B0
:1011D0009F5FC9F7880F911D9695879597F9089598
:1011E000E1E0660F771F881FBB1F62177307840734
:1011F000BA0720F0621B730B840BBA0BEE1F88F743
:10120000E09508950E94DE0988F09F5798F0B92F65
:101210009927B751B0F0E1F0660F771F881F991F2B
:101220001AF0BA95C9F714C0B13091F00E94100AB3
:10123000B1E008950C94100A672F782F8827B85FC3
:1012400039F0B93FCCF3869577956795B395D9F783
:101250003EF490958095709561957F4F8F4F9F4F8D
:101260000895E89409C097FB3EF490958095709599
:1012700061957F4F8F4F9F4F9923A9F0F92F96E9E2
:10128000BB279395F695879577956795B795F11157
:10129000F8CFFAF4BB0F11F460FF1BC06F5F7F4FF4
:1012A0008F4F9F4F16C0882311F096E911C0772306
:1012B00021F09EE8872F762F05C0662371F096E80F
:1012C000862F70E060E02AF09A95660F771F881FDE
:1012D000DAF7880F9695879597F908950E94F8098F
:1012E00090F09F3748F4911116F00C94110A60E0C9
:1012F00070E080E89FEB089526F41B16611D711DB8
:10130000811D0C948B090C94A60997F99F6780E8BE
:1013100070E060E00895882371F4772321F09850FD
:10132000872B762F07C0662311F499270DC09051A3
:10133000862B70E060E02AF09A95660F771F881F71
:10134000DAF7880F9695879597F908959F3F31F0C2
:10135000915020F4879577956795B795880F911DE3
:101360009695879597F908959FEF80EC089500244E
:101370000A941616170618060906089500240A94FA
:1013800012161306140605060895092E0394000C80
:1013900011F4882352F0BB0F40F4BF2B11F460FF0F
:1013A00004C06F5F7F4F8F4F9F4F089557FD905838
:1013B000440F551F59F05F3F71F04795880F97FB19
:1013C000991F61F09F3F79F08795089512161306D3
:1013D0001406551FF2CF4695F1DF08C01616170602
:1013E0001806991FF1CF8695710561050894089537
:1013F0000E94DE09A0F0BEE7B91788F4BB279F382A
:1014000060F41616B11D672F782F8827985FF7CFE5
:10141000869577956795B11D93959639C8F308958C
:10142000E894BB2766277727CB0197F908950E9498
:101430002A0A0C94C5090E94B70938F00E94BE0917
:1014400020F0952311F00C9485090C94B409112413
:101450000C94110A0E94D60970F3959FC1F3950F61
:1014600050E0551F629FF001729FBB27F00DB11D28
:10147000639FAA27F00DB11DAA1F649F6627B00DB8
:10148000A11D661F829F2227B00DA11D621F739FA1
:10149000B00DA11D621F839FA00D611D221F749FAF
:1014A0003327A00D611D231F849F600D211D822FF6
:1014B000762F6A2F11249F5750409AF0F1F088231D
:1014C0004AF0EE0FFF1FBB1F661F771F881F91504A
:1014D0005040A9F79E3F510580F00C9485090C946B
:1014E000110A5F3FE4F3983ED4F3869577956795AC
:1014F000B795F795E7959F5FC1F7FE2B880F911D74
:101500009695879597F90895AEE0B0E0EAE8FAE09D
:101510000C94450D0D891E8986E08C831A830983FE
:101520008FEF9FE79E838D83AE01475E5F4F6F898C
:10153000788DCE0101960E94A60AEF81F885E00F12
:10154000F11F10822E96E4E00C94610DABE0B0E048
:10155000ECEAFAE00C94370D6C017B018A01FC0186
:1015600017821682838181FFCCC1CE0101963C0196
:10157000F6019381F70193FD859193FF81917F019E
:10158000882309F4BAC1853239F493FD859193FF1C
:1015900081917F01853229F4B60190E00E949D0C73
:1015A000E7CF912C212C312CFFE1F315D8F08B32B1
:1015B00079F038F4803279F08332A1F4232D206160
:1015C0001DC08D3261F0803369F4232D216016C077
:1015D000832D8260382EE32DE4603E2E2AC0F32D49
:1015E000F8601DC037FC2DC020ED280F2A3040F0D8
:1015F0008E32B9F436FC81C1232D2064322E19C0FD
:1016000036FE06C08AE0989E200D1124922E11C04D
:10161000EAE02E9E200D1124222EF32DF0623F2EA3
:1016200008C08C3621F4832D8068382E02C088369D
:1016300041F4F70193FD859193FF81917F01811121
:10164000B3CF982F9F7D9554933028F40C5F1F4F94
:101650009FE399830DC0833631F0833771F0833572
:1016600009F059C021C0F801808189830E5F1F4FA6
:1016700088248394912C530113C02801F2E04F0E6B
:10168000511CF801A080B18036FE03C0692D70E0C6
:1016900002C06FEF7FEFC5010E94920C4C018201E6
:1016A000F32DFF773F2E16C0280122E0420E511C79
:1016B000F801A080B18036FE03C0692D70E002C041
:1016C0006FEF7FEFC5010E94870C4C01F32DF0688E
:1016D0003F2E820133FC1BC0822D90E088169906B4
:1016E000B0F4B60180E290E00E949D0C2A94F4CF01
:1016F000F50137FC859137FE81915F01B60190E0DD
:101700000E949D0C21102A9421E0821A91088114D4
:10171000910471F7E8C0843611F0893641F5F8017B
:1017200037FE07C060817181828193810C5F1F4FFA
:1017300008C060817181072E000C880B990B0E5F29
:101740001F4FF32DFF763F2E97FF09C09095809590
:10175000709561957F4F8F4F9F4FF0683F2E2AE025
:1017600030E0A3010E94D90C882E861845C0853729
:1017700031F4232D2F7EB22E2AE030E025C0932DA8
:10178000997FB92E8F36C1F018F4883579F0B5C03D
:10179000803719F0883721F0B0C0E92FE061BE2E04
:1017A000B4FE0DC0FB2DF460BF2E09C034FE0AC08C
:1017B000292F2660B22E06C028E030E005C020E1C7
:1017C00030E002C020E132E0F801B7FE07C06081DE
:1017D0007181828193810C5F1F4F06C0608171818E
:1017E00080E090E00E5F1F4FA3010E94D90C882E6D
:1017F0008618FB2DFF773F2E36FE0DC0232D2E7F42
:10180000A22E891458F434FE0BC032FC09C0832D7B
:101810008E7EA82E05C0B82CA32C03C0B82C01C006
:10182000B92CA4FE0FC0FE01E80DF11D80818033AC
:1018300021F49A2D997EA92E09C0A2FE06C0B39468
:10184000B39404C08A2D867809F0B394A3FC11C028
:10185000A0FE06C0B21488F4280C922C9B180EC06F
:10186000B21460F4B60180E290E00E949D0CB39443
:10187000F7CFB21418F42B1802C0982C212CA4FE18
:1018800010C0B60180E390E00E949D0CA2FE17C03C
:10189000A1FC03C088E790E002C088E590E0B601B3
:1018A0000CC08A2D867859F0A1FE02C08BE201C0DF
:1018B00080E2A7FC8DE2B60190E00E949D0C8914A5
:1018C00038F4B60180E390E00E949D0C9A94F7CF23
:1018D0008A94F301E80DF11D8081B60190E00E9429
:1018E0009D0C8110F5CF222009F442CEB60180E292
:1018F00090E00E949D0C2A94F6CFF6018681978194
:1019000002C08FEF9FEF2B96E2E10C94530DFC0188
:101910000590615070400110D8F7809590958E0F1A
:101920009F1F0895FC016150704001900110D8F78D
:10193000809590958E0F9F1F08950F931F93CF93BF
:10194000DF93FB01238121FD03C08FEF9FEF2CC0AC
:1019500022FF16C0468157812481358142175307E3
:1019600044F4A081B1819D012F5F3F4F31832083DB
:101970008C93268137812F5F3F4F3783268314C096
:101980008B01EC01FB010084F185E02D0995892B89
:10199000E1F6D80116968D919C91179701961796AE
:1019A0009C938E931697CE01DF91CF911F910F914B
:1019B0000895FA01AA27283051F1203181F1E894E5
:1019C0006F936E7F6E5F7F4F8F4F9F4FAF4FB1E032
:1019D0003ED0B4E03CD0670F781F891F9A1FA11D2D
:1019E000680F791F8A1F911DA11D6A0F711D811D2E
:1019F000911DA11D20D009F468943F912AE0269FF3
:101A000011243019305D3193DEF6CF010895462F51
:101A10004770405D4193B3E00FD0C9F7F6CF462F32
:101A20004F70405D4A3318F0495D31FD405241939B
:101A300002D0A9F7EACFB4E0A69597958795779558
:101A40006795BA95C9F700976105710508959B01DF
:101A5000AC010A2E06945795479537952795BA9568
:101A6000C9F7620F731F841F951FA01D08952F9241
:101A70003F924F925F926F927F928F929F92AF921E
:101A8000BF92CF92DF92EF92FF920F931F93CF936B
:101A9000DF93CDB7DEB7CA1BDB0B0FB6F894DEBF02
:101AA0000FBECDBF09942A88398848885F846E8428
:101AB0007D848C849B84AA84B984C884DF80EE8072
:101AC000FD800C811B81AA81B981CE0FD11D0FB67B
:101AD000F894DEBF0FBECDBFED010895F894FFCF9F
:101AE0004142434401019D00A500AF00B600190129
:101AF000020304050607080900000C57454C434F34
:101B00004D45002564002020202020005345543AF4
:101B1000004352543A0053544154453A00535441FF
:101B20004E444259004F5045524154494F4E004E89
:0C1B30004F524D414C004552524F5200A4
:00000001FF
