:100000000C942A000C9447000C9447000C94470071
:100010000C9447000C9447000C9447000C94470044
:100020000C9447000C9447000C94C6070C944700AE
:100030000C9447000C9447000C9447000C94470024
:100040000C9447000C9447000C9447000C94470014
:100050000C94470011241FBECFE5D8E0DEBFCDBF12
:1000600010E0A0E6B0E0E4ECF5E102C005900D92EE
:10007000AC3BB107D9F720E0ACEBB0E001C01D927A
:10008000AF3DB207E1F70E9441050C94E00A0C94E1
:10009000000087B1806487B987B1816087B987B173
:1000A000826087B987B1846087B986B1806886B974
:1000B00086B1846086B986B1826086B986B1816076
:1000C00086B9089586B18F7786B9089586B1806420
:1000D00086B9349BFECF86B1806186B924B185B1E3
:1000E00090E0982F8827822B0895823429F118F404
:1000F000813439F008958334D1F1843409F452C045
:100100000895413059F42AB381E090E002C0880F8D
:10011000991F6A95E2F7822B8ABB089541115CC052
:100120002AB381E090E002C0880F991F6A95E2F738
:10013000809582238ABB0895413059F427B381E02A
:1001400090E002C0880F991F6A95E2F7822B87BB67
:100150000895411141C027B381E090E002C0880FAB
:10016000991F6A95E2F78095822387BB08954130F5
:1001700059F424B381E090E002C0880F991F6A957A
:10018000E2F7822B84BB0895411126C024B381E09D
:1001900090E002C0880F991F6A95E2F7809582234C
:1001A00084BB0895413059F421B381E090E002C04E
:1001B000880F991F6A95E2F7822B81BB0895411140
:1001C0000BC021B381E090E002C0880F991F6A95AF
:1001D000E2F78095822381BB0895823429F118F4D7
:1001E000813439F008958334D1F1843409F452C054
:1001F0000895413059F42BB381E090E002C0880F9C
:10020000991F6A95E2F7822B8BBB089541115CC060
:100210002BB381E090E002C0880F991F6A95E2F746
:10022000809582238BBB0895413059F428B381E037
:1002300090E002C0880F991F6A95E2F7822B88BB75
:100240000895411141C028B381E090E002C0880FB9
:10025000991F6A95E2F78095822388BB0895413003
:1002600059F425B381E090E002C0880F991F6A9588
:10027000E2F7822B85BB0895411126C025B381E0AA
:1002800090E002C0880F991F6A95E2F7809582235B
:1002900085BB0895413059F422B381E090E002C05B
:1002A000880F991F6A95E2F7822B82BB089541114E
:1002B0000BC022B381E090E002C0880F991F6A95BD
:1002C000E2F78095822382BB08958234E9F018F426
:1002D000813431F055C0833459F18434E9F150C090
:1002E00049B381E090E09C01062E02C0220F331F2B
:1002F0000A94E2F7842F90E08223932302C095951D
:1003000087956A95E2F7089546B381E090E09C01F5
:10031000062E02C0220F331F0A94E2F7842F90E0CA
:100320008223932302C0959587956A95E2F70895F5
:1003300043B381E090E09C01062E02C0220F331FE0
:100340000A94E2F7842F90E08223932302C09595CC
:1003500087956A95E2F7089540B381E090E09C01AB
:10036000062E02C0220F331F0A94E2F7842F90E07A
:100370008223932302C0959587956A95E2F70895A5
:1003800080E00895823419F118F4813439F0089529
:100390008334B1F1843409F44CC00895413059F4E8
:1003A0002BB381E090E002C0880F991F6A95E2F7B5
:1003B000822B8BBB08952BB381E090E002C0880FA5
:1003C000991F6A95E2F7809582238BBB089541308F
:1003D00059F428B381E090E002C0880F991F6A9514
:1003E000E2F7822B88BB089528B381E090E002C039
:1003F000880F991F6A95E2F78095822388BB08953C
:10040000413059F425B381E090E002C0880F991F74
:100410006A95E2F7822B85BB089525B381E090E0D1
:1004200002C0880F991F6A95E2F78095822385BBE9
:100430000895413059F422B381E090E002C0880F62
:10044000991F6A95E2F7822B82BB089522B381E05F
:1004500090E002C0880F991F6A95E2F78095822389
:1004600082BB08956295607F823481F018F48134F4
:1004700031F00895833489F08434B1F008958BB35A
:100480008F708BBB8BB3682B6BBB089588B38F7059
:1004900088BB88B3682B68BB089585B38F7085BB14
:1004A00085B3682B65BB089582B38F7082BB82B31E
:1004B000682B62BB0895CF93DF93C0E6D0E041E0A4
:1004C00060E088810E94750041E061E088810E94BF
:1004D000750041E062E088810E94750041E063E0C0
:1004E00088810E94750040E064E088810E94750068
:1004F00040E065E088810E94750040E066E0888108
:100500000E94750041E064E088810E94C20141E0E0
:1005100065E088810E94C20141E066E088810E9416
:10052000C201DF91CF910895CF92DF92EF92FF92B7
:100530000F931F93CF93DF93CDB7DEB72C970FB6F2
:10054000F894DEBF0FBECDBF8CE0E1E7F0E0DE0146
:10055000119601900D928A95E1F7EE24EA94F12C20
:1005600079C00F2EF0E6CF2EF0E0DF2EF02D41E027
:1005700060E0F60180810E94ED0041E061E0F6015B
:1005800080810E94ED0041E062E0F60180810E94DE
:10059000ED0041E063E0F60180810E94ED0040E063
:1005A0006F2DF60180810E94ED0010E049C064E0EB
:1005B000610F809160000E946501082F811113C0B6
:1005C0008F2D90E0FC01EE0FFF1FE80FF91FE454A0
:1005D000FF4FE10FF11D81E0808380916500815024
:1005E000809365002CC080916500811128C08F2DFB
:1005F00090E0212F30E0FC01EE0FFF1FE80FF91F04
:10060000E454FF4FE20FF31F40814130C1F4AC01CD
:10061000440F551F840F951FE1E0F0E0EC0FFD1F24
:10062000E80FF91FE20FF31FE08084549F4FFC0195
:10063000E20FF31F108281E08093650004C01F5F0A
:10064000133008F4B4CF011104C0809165008823F1
:1006500029F0F394F3E0FF1508F083CF8E2D2C964C
:100660000FB6F894DEBF0FBECDBFDF91CF911F91C3
:100670000F91FF90EF90DF90CF900895CF93DF938D
:10068000C0E6D0E041E060E088810E94ED0041E0FA
:1006900061E088810E94ED0041E062E088810E9473
:1006A000ED0040E063E088810E94ED0066E0888113
:1006B0000E946501811107C0809164008150809380
:1006C000640080E009C080916400811104C081E071
:1006D0008093640001C080E0DF91CF910895CF93B3
:1006E000DF93C0E6D0E041E063E08A810E94ED0044
:1006F0008FE39FE10197F1F700C0000040E063E065
:100700008A810E94ED008FE39FE10197F1F700C01D
:100710000000DF91CF9108951F93CF93DF93182F9F
:10072000682F62956F70C0E6D0E08A810E94320225
:1007300040E061E08A810E94ED000E946F03612F1A
:100740008A810E94320240E061E08A810E94ED00CD
:100750000E946F038FE99FE00197F1F700C000004E
:10076000DF91CF911F910895CF93DF93C0E6D0E042
:1007700041E064E08A810E94750041E065E08A8181
:100780000E94750041E066E08A810E94750041E0A8
:1007900067E08A810E94750041E063E08A810E94DF
:1007A000750041E062E08A810E94750041E061E0ED
:1007B0008A810E94750040E062E08A810E94ED001B
:1007C00082E00E948C0388E20E948C038CE00E94ED
:1007D0008C0381E00E948C0386E00E948C03DF91F1
:1007E000CF9108951F93CF93DF93182F682F6295B1
:1007F0006F70C0E6D0E08A810E94320241E061E081
:100800008A810E94ED000E946F03612F8A810E94FD
:10081000320241E061E08A810E94ED000E946F0394
:100820008FE99FE00197F1F700C00000DF91CF91C1
:100830001F9108950F931F93CF938C01C0E003C0C5
:100840000E94F203CF5FF801EC0FF11D808181114E
:10085000F7CFCF911F910F91089581E00E948C03F3
:100860008FE99FE00197F1F700C0000008959FEF26
:10087000980F923070F4613170F4662371F081301A
:1008800019F48FE7860F0CC0823049F48FEB860F86
:1008900007C080E805C080E803C080E801C080E0B0
:1008A0000E948C038FE99FE00197F1F700C00000E0
:1008B0000895813021F488E10E948C03089581110C
:1008C00003C08CE10E948C03089541E00E947500F2
:1008D000089541E00E94ED00089540E00E94ED007F
:1008E00008950E94490008950E94620008950E94A0
:1008F0006600BC0180E090E00E9458092AE038E2DE
:1009000040EA5BE30E943E0A089581111CC0660F15
:10091000660F660F606663BF411104C083B78160D4
:1009200083BF0BC0413021F483B7826083BF05C011
:10093000423019F483B7846083BF41E063E082E40E
:100940000E94750008958230D9F4660F660F660F15
:10095000606665BD411104C085B5816085BD0BC071
:10096000413021F485B5826085BD05C0423019F45F
:1009700085B5846085BD41E067E084E40E94750030
:100980000895811102C013BE0895823009F415BC88
:100990000895811102C06CBF0895823009F463BDCF
:1009A0000895CF93DF93C0E6D0E041E064E0898111
:1009B0000E94750041E065E089810E94750041E078
:1009C00067E089810E94750040E066E089810E94AD
:1009D00075008DB180618DB98DB1877F8DB98DB175
:1009E00084608DB98DB181608DB98DB182608DB912
:1009F0008DB180648DB9DF91CF9108958FB9779BC8
:100A0000FECF8FB10895CF93C82F0E94D10441E04B
:100A100064E082E40E94ED0080E80E94FE048C2FD6
:100A20000E94FE0440E064E082E40E94ED00CF9169
:100A30000895CF9341E064E082E40E94ED0082E0FB
:100A40000E94FE0480E00E94FE04C82F40E064E0A3
:100A500082E40E94ED008C2F0E94FE048C2FCF9127
:100A6000089583B7886083BF8DE98CBF83B78160A9
:100A700083BF83B7846083BF789489B7826089BF5E
:100A800008950E94C30702C00E94EA058091C80031
:100A90008823D1F302C00E94B405809166008111C1
:100AA000FACF0E9463060E9410080E948606809179
:100AB00070000E94FE058091DE000E942906E091F0
:100AC000D200F0E0EE0FFF1FE859FF4F80819181C7
:100AD0000E9452068091D20081110AC00E94A30692
:100AE0000E942108809170000E94FE050E949307D9
:100AF0008091D200813011F50E949B060E94160859
:100B00000E94A9060E94EC062091CA003091CB00F9
:100B10004091CC005091CD006091CE007091CF00FB
:100B20008091D0009091D1000E94FD060E94930711
:100B30000E9442070E945F070E947C078091D200BA
:100B4000823051F40E94A3060E9416080E94930767
:100B50000E9429070E945F078091D200833009F02C
:100B6000A6CF0E94A306A3CF8091D9008A3070F04F
:100B700080916700882351F081E00E94590410920F
:100B8000D900809167008150809367008091D900DF
:100B90008A3090F08091670081110EC08091C90069
:100BA0008F3050F480E00E9459041092D900809157
:100BB000C9008F5F8093C9008091C9008F3049F4CC
:100BC000809367001092C9008091660081508093E5
:100BD000660008958091DA00853078F00E94B403B1
:100BE00060E181E00E9437048DE790E00E941A04E2
:100BF0001092DA0081E08093C8000895CF93DF93CC
:100C000000D0CDB7DEB78A3028F490E39983805DB9
:100C10008A8307C04AE0BE016F5F7F4F90E00E9469
:100C2000AB0A65E081E00E943704CE0101960E9484
:100C30001A040F900F90DF91CF9108956FE081E03B
:100C40000E9437048FEF0E94F2038FEF0E94F2039D
:100C50000895CF93DF9300D0CDB7DEB79091D20047
:100C6000933011F0911103C00E941E0616C08A3005
:100C700028F490E39983805D8A8307C04AE0BE012F
:100C80006F5F7F4F90E00E94AB0A6FE081E00E94AF
:100C90003704CE0101960E941A040F900F90DF9145
:100CA000CF910895CF93DF93EC0167E082E00E943B
:100CB0003704CE010E941A0485E890E00E941A04CD
:100CC000DF91CF9108950E942D048BE890E00E945F
:100CD0001A046BE081E00E94370480E990E00E94F2
:100CE0001A04809170000E94FE058091DE000E942F
:100CF000290661E082E00E94370485E990E00E94C5
:100D00001A048CE990E00E945206089560E082E4A3
:100D10000E94650461E082E40E94650462E082E46E
:100D20000E94650463E082E40E94650460E082E45E
:100D30000E94690408950E94710442E061E082E02B
:100D40000E94850408950E94740482E00E94C104F8
:100D50000895CF92DF92EF92FF92CF93609170004F
:100D6000C091DE00C61748F01092CE001092CF005E
:100D70001092D0001092D10029C0C61738F570E04B
:100D800080E090E00E9458096B017C016C2F70E0BC
:100D900080E090E00E9458099B01AC01C701B601B8
:100DA0000E944A0820E030E048EC52E40E94B70874
:100DB00020E030E040E251E40E943E0A6093CE0021
:100DC0007093CF008093D0009093D100CF91FF908B
:100DD000EF90DF90CF9008958091D500823360F03E
:100DE0000E9477046093CA007093CB008093CC007C
:100DF0009093CD001092D5000895CF92DF92EF929C
:100E0000FF926B017C01CA01B9010E944B0820E0EE
:100E100030E040E251E40E94B708A70196010E9429
:100E20003E0A20E030E040E251E40E94B70820E0B2
:100E300030E04FE753E40E943E0A0E9495090E9469
:100E4000290982E00E94C904FF90EF90DF90CF90C3
:100E50000895809170002091DE00082E000C990BFF
:100E6000821B910927FD939506975CF081E08093A2
:100E7000D20062E082E40E946D0461E082E40E949C
:100E8000690408958091700090E02091DE00821B3B
:100E900091098B3F2FEF92078CF006977CF482E04C
:100EA0008093D2001092D4001092D30061E082E4CB
:100EB0000E946D0462E082E40E94690408958091BA
:100EC000DE0020917000082E000C990B821B910906
:100ED00027FD93950B977CF083E08093D20062E02E
:100EE00082E40E946D0461E082E40E946D0463E08C
:100EF00082E40E94690408958091D3009091D40007
:100F0000853A984378F083E08093D2001092D40021
:100F10001092D30061E082E40E946D0463E082E4F9
:100F20000E94690408958091D600843158F10E948E
:100F30003E03813029F58091D20081110CC081E0FF
:100F40008093D20060E082E40E946D0461E082E45C
:100F50000E94690411C08150823070F41092D20056
:100F600062E082E40E946D0461E082E40E946D040C
:100F700060E082E40E9469041092D4001092D300D1
:100F80001092D60008950E94310508951F920F9285
:100F90000FB60F9211242F938F939F939091D200AD
:100FA000911105C08091DA008F5F8093DA00809103
:100FB000C800813029F48091D9008F5F8093D900D7
:100FC0008091D8008F5F8093D8008091D7008F5F89
:100FD0008093D7008091D6008F5F8093D600809158
:100FE000D5008F5F8093D500913091F4809170008F
:100FF00090E02091DE00821B9109069748F08091D5
:10100000D3009091D40001969093D4008093D300A4
:101010009F918F912F910F900FBE0F901F90189559
:101020000E945B0284E10E94030508958091D8002C
:10103000843130F00E9419058093DE001092D800B0
:1010400008958091D700843120F10E94940280930A
:10105000DD008F3FE1F08C30D1F0809370009091F3
:10106000DB0091110BC0880F282F220F220F820F57
:101070008093DC009F5F9093DB0009C09091DC00BF
:10108000890F8093DC00809370001092DB00109237
:10109000D70008955058BB27AA270E9462080C94D5
:1010A000EC090E94DE0938F00E94E50920F039F4CD
:1010B0009F3F19F426F40C94DB090EF4E095E7FB4E
:1010C0000C94AC09E92F0E94FD0958F3BA17620786
:1010D00073078407950720F079F4A6F50C94370A76
:1010E0000EF4E0950B2EBA2FA02D0B01B901900143
:1010F0000C01CA01A0011124FF27591B99F0593F87
:1011000050F4503E68F11A16F040A22F232F342FCE
:101110004427585FF3CF469537952795A795F0401C
:101120005395C9F77EF41F16BA0B620B730B840B31
:10113000BAF09150A1F0FF0FBB1F661F771F881FE9
:10114000C2F70EC0BA0F621F731F841F48F4879541
:1011500077956795B795F7959E3F08F0B0CF939533
:10116000880F08F09927EE0F9795879508950E94AC
:10117000CB080C94EC090E94E50958F00E94DE09A6
:1011800040F029F45F3F29F00C94AC0951110C9404
:10119000380A0C94DB090E94FD0968F39923B1F326
:1011A000552391F3951B550BBB27AA27621773078D
:1011B000840738F09F5F5F4F220F331F441FAA1F21
:1011C000A9F335D00E2E3AF0E0E832D091505040DD
:1011D000E695001CCAF72BD0FE2F29D0660F771F8B
:1011E000881FBB1F261737074807AB07B0E809F071
:1011F000BB0B802DBF01FF2793585F4F3AF09E3FF6
:10120000510578F00C94AC090C94380A5F3FE4F374
:10121000983ED4F3869577956795B795F7959F5F38
:10122000C9F7880F911D9695879597F90895E1E084
:10123000660F771F881FBB1F621773078407BA07E3
:1012400020F0621B730B840BBA0BEE1F88F7E0953E
:1012500008950E94050A88F09F5798F0B92F9927A2
:10126000B751B0F0E1F0660F771F881F991F1AF091
:10127000BA95C9F714C0B13091F00E94370AB1E0B5
:1012800008950C94370A672F782F8827B85F39F0B4
:10129000B93FCCF3869577956795B395D9F73EF42A
:1012A00090958095709561957F4F8F4F9F4F0895D2
:1012B000E89409C097FB3EF49095809570956195F0
:1012C0007F4F8F4F9F4F9923A9F0F92F96E9BB27A6
:1012D0009395F695879577956795B795F111F8CF22
:1012E000FAF4BB0F11F460FF1BC06F5F7F4F8F4F8D
:1012F0009F4F16C0882311F096E911C0772321F083
:101300009EE8872F762F05C0662371F096E8862F1A
:1013100070E060E02AF09A95660F771F881FDAF771
:10132000880F9695879597F908950E941F0A90F067
:101330009F3748F4911116F00C94380A60E070E081
:1013400080E89FEB089526F41B16611D711D811D19
:101350000C94B2090C94CD0997F99F6780E870E06E
:1013600060E00895882371F4772321F09850872B4B
:10137000762F07C0662311F499270DC09051862B54
:1013800070E060E02AF09A95660F771F881FDAF701
:10139000880F9695879597F908959F3F31F0915062
:1013A00020F4879577956795B795880F911D969549
:1013B000879597F908959FEF80EC089500240A948B
:1013C0001616170618060906089500240A94121620
:1013D0001306140605060895092E0394000C11F453
:1013E000882352F0BB0F40F4BF2B11F460FF04C000
:1013F0006F5F7F4F8F4F9F4F089557FD9058440F59
:10140000551F59F05F3F71F04795880F97FB991F63
:1014100061F09F3F79F08795089512161306140620
:10142000551FF2CF4695F1DF08C0161617061806AD
:10143000991FF1CF869571056105089408950E9462
:10144000050AA0F0BEE7B91788F4BB279F3860F4FF
:101450001616B11D672F782F8827985FF7CF8695CE
:1014600077956795B11D93959639C8F30895E894DB
:10147000BB2766277727CB0197F908950E94510A69
:101480000C94EC090E94DE0938F00E94E50920F076
:10149000952311F00C94AC090C94DB0911240C94E5
:1014A000380A0E94FD0970F3959FC1F3950F50E033
:1014B000551F629FF001729FBB27F00DB11D639F06
:1014C000AA27F00DB11DAA1F649F6627B00DA11DAC
:1014D000661F829F2227B00DA11D621F739FB00D52
:1014E000A11D621F839FA00D611D221F749F3327C2
:1014F000A00D611D231F849F600D211D822F762F5B
:101500006A2F11249F5750409AF0F1F088234AF037
:10151000EE0FFF1FBB1F661F771F881F91505040A3
:10152000A9F79E3F510580F00C94AC090C94380A41
:101530005F3FE4F3983ED4F3869577956795B7952A
:10154000F795E7959F5FC1F7FE2B880F911D969544
:10155000879597F90895BB274A3031F4992322F4EF
:10156000BDE2909581959F4F0C94B70ABB27FB0174
:101570005527AA27880F991FAA1FA41710F0A41B8C
:1015800083955051B9F7A05DAA3308F0A95DA193E6
:10159000009779F7B111B1931192CB010C94D00A55
:1015A000DC01FC01672F71917723E1F7329704C0CA
:1015B0007C916D9370836291AE17BF07C8F3089555
:0415C000F894FFCFCD
:1015C400414243440101030F9C00A400AE00B50056
:1015D4001901020304050607080900000C57454CCD
:1015E400434F4D45002020202020005345543A000D
:1015F4004352543A0053544154453A005354414ED3
:10160400444259004F5045524154494F4E004E4FA9
:0C161400524D414C004552524F52000014
:00000001FF
